:020000040800F2
:1000000000500020A9D20008310A0008370A000871
:100010003D0A0008430A0008490A000800000000E1
:10002000000000000000000000000000D19B00085C
:100030004F0A000800000000A19D0008E99D00088B
:10004000F1D20008F1D20008F1D20008F1D2000884
:10005000F1D20008F1D20008F1D20008F1D2000874
:10006000F1D20008F1D20008F1D20008F1D2000864
:10007000F1D20008F1D20008F1D20008F1D2000854
:10008000F1D20008F1D20008F1D20008F1D2000844
:100090005D0A0008F1D20008F1D20008F1D2000890
:1000A000F1D20008F1D20008F1D20008F1D2000824
:1000B000F1D20008F1D20008710A0008F1D200085C
:1000C000F1D20008F1D20008F1D20008F1D2000804
:1000D000F1D20008F1D20008F1D20008F1D20008F4
:1000E000F1D20008F1D20008F1D2000800000000AF
:1000F0000000000000000000000000000000000000
:0C01000000000000000000005FF808F1A3
:1001100010B5054C237833B9044B13B10448AFF341
:1001200000800123237010BD800200200000000029
:1001300064D3000808B5034B1BB103490348AFF370
:10014000008008BD000000008402002064D3000885
:1001500080B500AF064B074A1A60054801F033F836
:100160000346002B01D000F0CFFB00BF80BD00BFD5
:10017000841B00200030024080B485B000AF78605E
:100180007B681B68094A93420BD1094A084B5B699B
:1001900043F040035361064B5B6903F04003FB608F
:1001A000FB6800BF1437BD4680BC7047003002407A
:1001B0000010024080B485B000AFF860B9607A608A
:1001C000FB68064A1A60BB68054A1A607B68802291
:1001D0001A6000BF1437BD4680BC7047A0020020E3
:1001E000F402002080B485B000AFF860B9607A6096
:1001F000FB68074A1A60BB68064A1A607B684FF4BE
:1002000080721A6000BF1437BD4680BC704700BFC3
:10021000F404002048050020B0B5B4B000AF0023BE
:10022000C7F8C8300023C7F8CC3007F1C803184618
:1002300009F08AFA0246584B1A60584BC7F8C0308A
:100240000023C7F8C43007F1C0030022002118467C
:1002500009F000FA0246524B1A60524BC7F8B83008
:100260000023C7F8BC3007F1B8030022012118466B
:1002700009F0F0F902464C4B1A604C4BC7F8B0300D
:100280000023C7F8B43007F1B0030022002118465C
:1002900009F0E0F90246464B1A60464B07F1A0040C
:1002A0000FCB84E80F0007F1A0030021184609F0E6
:1002B000E7FA0246404B1A603E4B07F190040FCB21
:1002C00084E80F0007F190030021184609F0D8FADE
:1002D00002463A4B1A603A4B07F174041D460FCDA3
:1002E0000FC495E8070084E8070007F174030021B4
:1002F000184609F04FF90246324B1A60324B07F1AB
:1003000058041D460FCD0FC495E8070084E8070088
:1003100007F158030021184609F03CF902462B4B1F
:100320001A602B4B07F13C041D460FCD0FC495E816
:10033000070084E8070007F13C030021184609F094
:1003400029F90246234B1A60234B07F120041D466E
:100350000FCD0FC495E8070084E8070007F12003DC
:100360000021184609F016F902461C4B1A601C4B76
:100370003C1D1D460FCD0FC495E8070084E807001B
:100380003B1D0021184609F005F90246154B1A607D
:1003900000BFD037BD46B0BDA41B0020110500082A
:1003A0009C1B002059050008901B0020A105000897
:1003B000A81B00207CD300081C1C0020941B0020DC
:1003C00098D300088C1B0020C0D30008B01B00206D
:1003D000E8D30008AC1B002010D40008981B0020B4
:1003E0003CD40008A01B002080B584B000AF78602A
:1003F0000CF010FB2C4B01221A700CF00BFB0123AC
:10040000FB730123BB7300F0ABF9BB7B002B2AD03D
:1004100000237B7322E07B7B244A0F2102F8231008
:100420007B7B7A7B6132D1B2204A9B0013440A461F
:100430005A7000233B730BE07A7B3B7B1B49920095
:100440000A4413440233FF221A703B7B01333B738F
:100450003B7B012BF0D97B7B01337B737B7B192B9F
:10046000D9D90023BB73FB7B002B15D00023BB60C5
:100470000DE0BB6803F1006303F5004319780C4AF3
:10048000BB6813440A461A70BB680133BB60BB6883
:10049000FE2BEED90023FB73012009F0C7F80020E2
:1004A0000BF02EF8B1E700BF9C020020B41B002027
:1004B000D41C002080B582B000AF7860012009F024
:1004C000B5F8104B1B78DBB2012B02D100200BF0EA
:1004D00017F80D4B1B78DBB2012BEFD10A4B002232
:1004E0001A700A4B1B684FF0FF31184609F044F9A7
:1004F000054800F043FD054B1B68184609F08AF9D2
:10050000DCE700BF9C02002048090020A41B00205B
:1005100080B584B000AF78600C4BBB600023FB81DA
:1005200007E0FB89BA68134400221A70FB89013383
:10053000FB81FB89192BF4D91C220549054807F0DA
:100540004BFE00BF1037BD4680BD00BF221C0020FF
:10055000201C0020A031002080B582B000AF786060
:100560000C4B0F2283F821200A4B04229A70094B6E
:100570000522DA701C220749074807F02DFE074BB9
:100580001B686421184609F099F800BF0837BD467A
:1005900080BD00BF201C0020A0310020A81B00202F
:1005A00080B582B000AF7860094B0F2283F821201C
:1005B000074B00229A70064B0022DA701C22044975
:1005C000044807F009FE00BF0837BD4680BD00BFE4
:1005D000201C0020A031002080B584B000AF7860DE
:1005E0000A4BFB60642009F021F8094B1B78DBB251
:1005F000012BF7D1074B1B684FF47A71184609F0AD
:100600005DF800200AF07CFFECE700BF221C002010
:100610009C020020901B002080B582B000AF786063
:10062000012009F003F800200AF06AFFF8E7000053
:1006300080B586B000AF786000200AF061FF01202D
:1006400008F0F4FF414B196807F10C034FF0FF323B
:10065000184609F03FF9FB68102B59D13B690F2B65
:1006600056D801A252F823F0A9060008B9060008DE
:10067000C906000811070008D9060008110700087C
:1006800011070008110700081107000811070008EA
:1006900011070008E9060008F3060008FD06000837
:1006A0001107000807070008294B00225A77284B3A
:1006B0000E2283F821202BE0254B01225A77244B70
:1006C0000E2283F8212023E0214B02225A77204B6F
:1006D0000E2283F821201BE01D4B04225A771C4B6D
:1006E0000E2283F8212013E0194B0E2283F82120DB
:1006F0000EE0174B0E2283F8212009E0144B0E2246
:1007000083F8212004E0124B0F2283F8212000BF40
:100710000F4B93F821300E2B05D105220D490E48C1
:1007200007F05AFD8BE70A4B93F821300F2B86D147
:100730001C220749084807F04FFD084B1B684FF47F
:10074000FA71184608F0BAFF79E700BF941B002041
:10075000201C00203C1C0020A03100209C1B0020FD
:1007600080B400AF064B01221A70054B00225A706C
:10077000034B02221A7700BF1846BD4680BC704763
:10078000201C002080B588B000AF07F110030022C4
:100790001A605A609A60DA60194A194B9B6943F0F3
:1007A00020039361164B9B6903F02003FB60FB68F9
:1007B000134A134B9B6943F008039361104B9B69E9
:1007C00003F00803BB60BB680D4A0D4B9B6943F007
:1007D000040393610A4B9B6903F004037B607B680D
:1007E00002233B6100237B610123BB6107F11003FE
:1007F0001946044800F004FF00BF2037BD4680BD05
:1008000000100240000C014080B500AF00F0CCFBAE
:1008100000F00DF8FFF7B6FFFFF79AFC00F032F991
:1008200006F0DEF8FFF7F8FC08F0ADFEFEE780B555
:1008300094B000AF07F128032822002118460CF0DD
:1008400088FD07F1140300221A605A609A60DA608A
:100850001A613B1D00221A605A609A60DA60012317
:10086000BB624FF48033FB6200233B630123BB6315
:1008700002237B644FF48033BB644FF48013FB642A
:1008800007F12803184602F025FD0346002B01D08E
:1008900000F03AF80F237B610223BB610023FB6168
:1008A0004FF480633B6200237B6207F11403012154
:1008B000184602F08FFF0346002B01D000F024F809
:1008C00010237B604FF480033B613B1D184603F00F
:1008D00039F90346002B01D000F016F800BF50375D
:1008E000BD4680BD80B582B000AF78607B681B6874
:1008F000044A934201D100F06DFB00BF0837BD46AA
:1009000080BD00BF0008004080B400AF72B6FEE7B3
:1009100080B584B000AF184A174B9B6943F00103C0
:100920009361154B9B6903F00103BB60BB68124ADE
:10093000114BDB6943F08053D3610F4BDB6903F04C
:1009400080537B607B6800220F216FF0010000F074
:1009500010FC0A4B5B68FB60FB6823F0E063FB6004
:10096000FB6843F00073FB60044AFB68536000BF00
:100970001037BD4680BD00BF00100240000001409E
:1009800080B58CB000AF78600023FB620023BB62AF
:10099000002279681E2000F0ECFB1E2000F005FC10
:1009A0001F4A1F4BDB6943F00403D3611C4BDB6917
:1009B00003F00403FB60FB6807F1100207F1140366
:1009C0001146184603F070F803F05AF803465B002E
:1009D000FB62FB6A134AA2FB03239B0C013BBB6235
:1009E000114B124A1A60104B40F2E732DA600E4A9D
:1009F000BB6A53600C4B00221A610B4B00229A60B9
:100A0000094803F055F90346002B04D1064803F0CA
:100A10009FF9034600E0012318463037BD4680BDEC
:100A20000010024083DE1B43441C002000080040ED
:100A300080B400AFFEE780B400AFFEE780B400AF43
:100A4000FEE780B400AFFEE780B400AFFEE780B4FD
:100A500000AF00BFBD4680BC7047000080B500AF4E
:100A6000024801F058F800BF80BD00BF6436002086
:100A700080B500AF024803F0BDF900BF80BD00BFE4
:100A8000441C002080B586B000AF07F108030022A7
:100A90001A605A609A60DA603B4600221A605A6017
:100AA0001E4B1F4A1A601D4B00225A601B4B00222E
:100AB0009A601A4B4FF6FF72DA60184B00221A61E7
:100AC000164B00225A61154B00229A61134803F01D
:100AD000EFF80346002B01D0FFF716FF4FF48053C9
:100AE000BB6007F1080319460C4803F08BFA034674
:100AF000002B01D0FFF708FF00233B6000237B6041
:100B00003B461946054803F051FC0346002B01D033
:100B1000FFF7FAFE00BF1837BD4680BD8C1C0020D1
:100B2000002C014080B485B000AF78607B681B6802
:100B3000094A93420BD1094A084B9B6943F400636D
:100B40009361064B9B6903F40063FB60FB6800BF85
:100B50001437BD4680BC7047002C01400010024095
:100B600080B483B000AF0346FB71002318460C37F6
:100B7000BD4680BC704780B485B000AF0346B96005
:100B80007A60FB73BB6808221A607B684FF40072BE
:100B90001A80002318461437BD4680BC704780B4C5
:100BA00083B000AF0346FB71002318460C37BD46E7
:100BB00080BC704780B483B000AF0346FB71002354
:100BC00018460C37BD4680BC7047000080B489B021
:100BD00000AFB9607A601A460346FB731346BB81C7
:100BE0007B685B02FB610023BB61BB89BB82002386
:100BF000BB610FE0FA69BB6913440C4AD35CDBB2FA
:100C0000FB75BB69BA681344FA7DD2B21A70BB692E
:100C10000133BB61BB895B021A46BB699A42E9D8C2
:100C2000002318462437BD4680BC7047D41C0020E2
:100C300080B588B000AFB9607A601A460346FB738E
:100C40001346BB817B685B02FB610023BB61002311
:100C5000BB610EE0BB69BA6813441B78FB75FA6987
:100C6000BB691344FA7DD1B20A4AD154BB6901333E
:100C7000BB61BB895B021A46BB699A42EAD87868B5
:100C800000F014F8BB89044A53600023184620374B
:100C9000BD4680BDD41C00204809002080B400AFB0
:100CA00000231846BD4680BC7047000080B487B062
:100CB00000AF78601E4A07F10C03126811461980D4
:100CC0000233120C1A707B685B027B6122E0002306
:100CD0003B6117E07A693B691344164AD35CDAB288
:100CE00007F10C013B690B441B789A420ED13B691A
:100CF000012B03D83B6901333B6103E00E4B01221A
:100D00001A7011E03B69022BE4D900E000BF7B6957
:100D100001337B617B685A1C1346DB019B1A9B00E5
:100D20001A447B699A42D2D81C37BD4680BC7047B2
:100D300058D40008D41C00204809002080B485B095
:100D400000AF78600023FB720023FB600DE07A683F
:100D5000FB6813441B78FB72FB7ADBB2FF2B01D0DC
:100D6000002307E0FB680133FB60FB68B3F5806F8D
:100D7000EDD3012318461437BD4680BC70470000F0
:100D800080B584B000AF78607B685B685B08DAB2DE
:100D90007B685B68DBB203F00103DBB21344DBB2B8
:100DA000BB7300F09DFA194A184BDB6923F001036D
:100DB000D361174B0122DA60154B03225A600023DE
:100DC000FB7317E0FB7B03F5003320339B02104AD3
:100DD00093600F4B9B681846FFF7B0FF0346002B4C
:100DE00004D10C490A4800F063FB00E000BFFB7B24
:100DF0000133FB73BB7BDBB2FA7B9A42E2D300F098
:100E000095FA00BF1037BD4680BD00BF00200240EC
:100E100054090020500900202DE9F04F8FB000AF99
:100E2000F86200F05DFA00237B6394E0514A7B6B2B
:100E300013441B78D8B24FF000017B6B5A1C4D4B0A
:100E40009B5CDBB24FF00004260246EA13661D02EB
:100E500040EA050041EA06017B6B9A1C454B9B5C0E
:100E6000DBB24FF000044FEA044949EA13494FEA64
:100E7000034840EA080041EA09017B6BDA1C3D4B5C
:100E80009B5CDBB24FF000041A0A7A621B063B62DD
:100E9000D7E908AB4AEA000A4BEA010B7B6B1A1D43
:100EA000344B9B5CDBB24FF000041B00FB61002362
:100EB000BB617B6B5A1D2F4B9B5CDBB24FF0000478
:100EC0001B027B6100233B61D7E90601D7E90434AB
:100ED00040EA030041EA04017B6B9A1D254B9B5CB1
:100EE000DBB24FF000041B04FB600023BB60D7E9BA
:100EF000023443EA000344EA0104184621467B6BAE
:100F0000DA1D1C4B9B5CDBB24FF000041B067B60C0
:100F100000233B6097E8180043EA000344EA010419
:100F200043EA0A0344EA0B04134A82E818007B6B85
:100F300003F1006101F500410F4B18CB1A4623461F
:100F4000032000F05DF90346002B01D0FFF7DCFC25
:100F50007B6B08337B63FB6A5B685A027B6B9A424C
:100F60003FF664AF00F0E2F900BF3C37BD46BDE894
:100F7000F08F00BFD41C00206809002080B582B02B
:100F800000AF78607868FFF7FBFE7868FFF744FFF2
:100F9000002318460837BD4680BD80B400AF00BFAF
:100FA000BD4680BC7047000080B500AF084A084BC2
:100FB0001B6843F010031360032000F0CFF80020FB
:100FC000FFF7DEFCFFF7A4FC0023184680BD00BF3E
:100FD0000020024080B400AF054B1B781A46054B39
:100FE0001B681344034A136000BFBD4680BC7047B2
:100FF00028000020D42C002080B400AF024B1B68D6
:101000001846BD4680BC7047D42C002080B485B003
:1010100000AF78607B6803F00703FB600C4BDB6874
:10102000BB60BA684FF6FF031340BB60FB681A024F
:10103000BB68134343F0BF6343F40033BB60044A0F
:10104000BB68D36000BF1437BD4680BC704700BF8B
:1010500000ED00E080B400AF044BDB681B0A03F036
:1010600007031846BD4680BC704700BF00ED00E096
:1010700080B483B000AF0346FB7197F90730002BB3
:101080000BDB084997F907305B09FA7902F01F0278
:10109000012000FA02F241F8232000BF0C37BD46C0
:1010A00080BC704700E100E080B483B000AF03462D
:1010B0003960FB7197F90730002B0ADB0D4997F96E
:1010C00007303A68D2B21201D2B20B4483F800233F
:1010D0000AE00949FB7903F00F03043B3A68D2B2F6
:1010E0001201D2B20B441A7600BF0C37BD4680BC49
:1010F000704700BF00E100E000ED00E080B489B07F
:1011000000AFF860B9607A60FB6803F00703FB6129
:10111000FB69C3F10703042B28BF0423BB61FB69F0
:101120000433062B02D9FB69033B00E000237B61FB
:101130000122BB6902FA03F35A1EBB681A407B699D
:101140009A4001217B6901FA03F3591E7B680B4029
:10115000134318462437BD4680BC704780B582B023
:1011600000AF78607868FFF751FF00BF0837BD46D1
:1011700080BD80B586B000AF0346B9607A60FB736E
:1011800000237B61FFF766FF78617A68B968786948
:10119000FFF7B4FF024697F90F3011461846FFF7E4
:1011A00083FF00BF1837BD4680BD80B582B000AF59
:1011B0000346FB7197F907301846FFF759FF00BF48
:1011C0000837BD4680BD80B582B000AF78607B68CF
:1011D000002B01D101230EE07B685B79DBB2002B91
:1011E00005D17B6800221A717868FEF7C5FF7B681D
:1011F00001225A71002318460837BD4680BD000001
:10120000F0B587B000AFF860B960C7E900230123EB
:10121000FB750023BB7500237B752F4B1B7E012BB9
:1012200001D1022354E02C4B01221A764CF25030AB
:1012300000F0A8F80346FB75FB7D002B44D1FB684A
:10124000012B02D101237B7507E0FB68022B02D141
:1012500002237B7501E004237B750023BB752DE021
:10126000BB7D5A00BB6802EB030EBB7D1901D7E9B9
:101270000023C1F12006A1F1200022FA01F403FAB3
:1012800006F6344323FA00F0044323FA01F5A3B22F
:101290001946704600F05AF84CF2503000F072F8DF
:1012A0000346FB750D4A0D4B1B6923F001031361C7
:1012B000FB7D002B07D1BB7D0133BB75BA7D7B7DE8
:1012C0009A42CDD300E000BF034B00221A76FB7D8B
:1012D00018461C37BD46F0BDD82C00200020024027
:1012E00080B483B000AF0023FB710D4B1B6903F08A
:1012F0008003002B0DD00A4B0A4A5A60084B0A4A59
:101300005A60074B1B6903F08003002B01D00123B7
:10131000FB71FB7918460C37BD4680BC704700BF97
:101320000020024023016745AB89EFCD80B400AFB8
:10133000054A054B1B6943F08003136100231846DF
:10134000BD4680BC704700BF0020024080B483B01F
:1013500000AF78600B467B80084B0022DA61084AB8
:10136000074B1B6943F0010313617B687A881A807D
:1013700000BF0C37BD4680BC704700BFD82C002092
:101380000020024080B584B000AF7860FFF734FEE3
:10139000F86010E07B68B3F1FF3F0CD07B68002B56
:1013A00007D0FFF729FE0246FB68D21A7B689A42F3
:1013B00001D9032325E0154BDB6803F00103002B63
:1013C000E8D1124BDB6803F02003002B02D00F4B57
:1013D0002022DA600D4BDB6803F01003002B0BD1E9
:1013E0000A4BDB6903F00103002B05D1074BDB68D7
:1013F00003F00403002B03D000F00AF8012300E0FF
:10140000002318461037BD4680BD00BF00200240B3
:1014100080B483B000AF00237B60234BDB6803F014
:101420001003002B09D0214BDB6943F002031F4A54
:10143000D3617B6843F010037B601B4BDB6803F0D8
:101440000403002B09D0194BDB6943F00103174A51
:10145000D3617B6843F004037B60134BDB6903F0CB
:101460000103002B0BD0114BDB6943F004030F4A3F
:10147000D3610D4A0C4BDB6923F00103D3617B6818
:1014800040F20112934206D1074A074BDB6923F071
:101490000103D36102E0044A7B68D36000BF0C37CC
:1014A000BD4680BC704700BF00200240D82C002001
:1014B00080B584B000AF786039600123FB730023EE
:1014C000BB602F4B1B7E012B01D1022353E02C4B21
:1014D00001221A767B681B68022B16D14CF2503021
:1014E000FFF750FF0346002B41D1012000F04CF8DC
:1014F0004CF25030FFF746FF0346FB73214A214B65
:101500001B6923F00403136131E04CF25030FFF704
:1015100039FF0346002B2AD13B684FF0FF321A6097
:101520007B689B68BB6019E0B86800F049F84CF232
:101530005030FFF727FF0346FB73124A114B1B691C
:1015400023F002031361FB7B002B03D03B68BA68D6
:101550001A600CE0BB6803F58063BB607B68DB68E6
:101560009A027B689B681A44BB689A42DCD8044B99
:1015700000221A76FB7B18461037BD4680BD00BF9F
:10158000D82C00200020024080B483B000AF7860E7
:10159000094B0022DA61094A084B1B6943F0040336
:1015A0001361064A054B1B6943F04003136100BFFA
:1015B0000C37BD4680BC7047D82C0020002002406C
:1015C00080B483B000AF78600B4B0022DA610B4A25
:1015D0000A4B1B6943F002031361084A7B6853619D
:1015E000064A064B1B6943F04003136100BF0C37EA
:1015F000BD4680BC704700BFD82C002000200240B0
:1016000080B48BB000AF7860396000237B62002328
:101610003B6227E101227B6A02FA03F3FB613B682C
:101620001A68FB691340BB61BA69FB699A4240F0D2
:1016300016813B685B68122B34D0122B0DD8022B1D
:101640002BD0022B04D8002B31D0012B1CD048E02A
:10165000032B43D0112B1BD043E0894A934226D061
:10166000874A934206D8874A934220D0864A9342BB
:101670001DD036E0854A934219D0854A934216D050
:10168000844A934213D02CE03B68DB683B6228E03D
:101690003B68DB6804333B6223E03B68DB6808336C
:1016A0003B621EE03B68DB680C333B6219E03B6841
:1016B0009B68002B02D104233B6212E03B689B68CD
:1016C000012B05D108233B627B68FA691A6108E0A7
:1016D00008233B627B68FA695A6102E000233B629F
:1016E00000BFBB69FF2B01D87B6801E07B68043336
:1016F0007B61BB69FF2B02D87B6A9B0002E07B6A9F
:10170000083B9B003B617B691A680F213B6901FA2A
:1017100003F3DB431A40396A3B6901FA03F31A43C6
:101720007B691A603B685B6803F08053002B00F014
:101730009680594A584B9B6943F001039361564B7D
:101740009B6903F00103BB60BB68544A7B6A9B083A
:10175000023352F82330FB607B6A03F003039B00E3
:101760000F2202FA03F3DB43FA681340FB607B6845
:101770004B4A934213D07B684A4A93420DD07B6810
:10178000494A934207D07B68484A934201D10323D8
:1017900006E0042304E0022302E0012300E000232A
:1017A0007A6A02F0030292009340FA681343FB60E6
:1017B0003A497B6A9B080233FA6841F823203B6868
:1017C0005B6803F48033002B06D03949384B1A6824
:1017D000BB6913430B6006E03549354B1A68BB699A
:1017E000DB4313400B603B685B6803F40033002B62
:1017F00006D02F492E4B5A68BB6913434B6006E055
:101800002B492B4B5A68BB69DB4313404B603B6849
:101810005B6803F48013002B06D02549244B9A689B
:10182000BB6913438B6006E02149214B9A68BB6971
:10183000DB4313408B603B685B6803F40013002BB1
:1018400006D01B491A4BDA68BB691343CB6006E02C
:101850001749174BDA68BB69DB431340CB607B6ADF
:1018600001337B623B681A687B6A22FA03F3002B20
:101870007FF4D0AE00BF2C37BD4680BC704700BFA0
:1018800000002110000011100000121000003110A3
:101890000000321000002210001002400000014041
:1018A00000080140000C01400010014000140140FC
:1018B00000040140F0B58BB006AF78607B68002B68
:1018C00001D10123FDE07B6893F8A932DBB2002B44
:1018D00006D17B68002283F8A82278680BF024FAEE
:1018E0007B68032283F8A9227B681B68184602F0F4
:1018F000F3FD7B681B683B607E686D4606F1100453
:101900000FCC0FC523682B60331D0ECB386802F057
:10191000BDFD0346002B05D07B68022283F8A92277
:101920000123CEE07B681B680021184602F0EEFD23
:101930000023FB734CE0FB7B79685A1C13469B0029
:101940001344DB000B44013301221A70FB7B7968DE
:101950005A1C13469B001344DB000B44FA7B1A709D
:10196000FA7BFB7B98B2796813469B001344DB003B
:101970000B44363302461A80FB7B79685A1C1346A7
:101980009B001344DB000B44033300221A70FA7BE4
:10199000796813469B001344DB000B443833002264
:1019A0001A60FA7B796813469B001344DB000B44F2
:1019B0003C3300221A60FA7B796813469B0013447B
:1019C000DB000B44403300221A60FB7B0133FB73C6
:1019D000FA7B7B685B689A42ADD30023FB7344E0DB
:1019E000FA7B796813469B001344DB000B4403F237
:1019F000691300221A70FA7B796813469B0013441E
:101A0000DB000B4403F5B473FA7B1A70FA7B796838
:101A100013469B001344DB000B4403F26B130022BC
:101A20001A70FA7B796813469B001344DB000B4461
:101A300003F5BC7300221A60FA7B796813469B0099
:101A40001344DB000B4403F5BE7300221A60FA7BDB
:101A5000796813469B001344DB000B4403F5C07305
:101A600000221A60FB7B0133FB73FA7B7B685B68A7
:101A70009A42B5D37B681B683B607E686D4606F171
:101A800010040FCC0FC523682B60331D0ECB3868B4
:101A900002F048FD0346002B05D07B68022283F844
:101AA000A92201230DE07B68002283F824207B68B3
:101AB000012283F8A9227B681B68184604F0D9FE2E
:101AC000002318461437BD46F0BD80B582B000AF84
:101AD00078607B6893F8A832012B01D1022316E0CD
:101AE0007B68012283F8A8227B681B68184602F0F5
:101AF000DDFC012178680BF0A0FB7B681B681846B1
:101B000004F0ADFE7B68002283F8A822002318466B
:101B10000837BD4680BD80B588B000AF78607B686F
:101B20001B68184604F0AFFE034603F40043B3F508
:101B3000004F02D1786800F08EFB7B681B68184666
:101B400004F0A1FE034603F48063B3F5806F12D165
:101B50007B681B687A681268B2F8442092B222F45B
:101B6000806292B2A3F8442078680BF058F9002103
:101B7000786800F025F97B681B68184604F083FE3E
:101B8000034603F48043B3F5804F0BD17B681B6899
:101B90007A681268B2F8442092B222F4804292B27B
:101BA000A3F844207B681B68184604F06CFE0346CB
:101BB00003F40053B3F5005F0BD17B681B687A68B0
:101BC0001268B2F8442092B222F4005292B2A3F802
:101BD00044207B681B68184604F055FE034603F456
:101BE0008053B3F5805F26D17B681B687A681268E2
:101BF000B2F8402092B222F0040292B2A3F8402040
:101C00007B681B687A681268B2F8402092B222F0B2
:101C1000080292B2A3F8402078680BF039F97B688B
:101C20001B687A681268B2F8442092B222F480529B
:101C300092B2A3F844207B681B68184604F023FE88
:101C4000034603F40063B3F5006F40F08480002383
:101C5000FB7711E0FB7F7A6812681146FA7F9200E9
:101C60000A44128892B25B0007F120010B4423F86A
:101C7000142CFB7F0133FB77FB7F072BEAD97B68B2
:101C80001B687A681268B2F8402092B242F00102F2
:101C900092B2A3F840207B681B687A681268B2F899
:101CA000402092B222F0010292B2A3F8402000BF7D
:101CB0007B681B68B3F844309BB203F48063002B4D
:101CC000F6D07B681B687A681268B2F8442092B23A
:101CD00022F4806292B2A3F844200023FB7710E044
:101CE0007B681B681A46FB7F9B001A44FB7F5B00E6
:101CF00007F120010B4433F8143C1380FB7F0133C0
:101D0000FB77FB7F072BEBD97B681B687A6812682F
:101D1000B2F8402092B242F0080292B2A3F84020FA
:101D20007B681B687A681268B2F8442092B222F489
:101D3000006292B2A3F844207B681B687A6812683C
:101D4000B2F8402092B242F0040292B2A3F84020CE
:101D500078680BF083F87B681B68184604F093FDE5
:101D6000034603F40073B3F5007F0ED17B681B6854
:101D70007A681268B2F8442092B222F4007292B2E9
:101D8000A3F8442078680BF03CF87B681B68184681
:101D900004F079FD034603F48073B3F5807F0BD123
:101DA0007B681B687A681268B2F8442092B222F409
:101DB000807292B2A3F8442000BF2037BD4680BD98
:101DC00080B582B000AF78600B46FB707B6893F8FB
:101DD000A832012B01D1022313E07B68012283F892
:101DE000A8227B68FA7883F824207B681B68FA783D
:101DF0001146184604F020FD7B68002283F8A822D3
:101E0000002318460837BD4680BD80B584B000AFBA
:101E10007860084611461A460346FB700B463B8025
:101E20001346BB700023FB7297F90330002B0EDAC8
:101E3000FB7803F007035A1C13469B001344DB0096
:101E40007A681344FB60FB6801225A700EE0FB784D
:101E500003F0070213469B001344DB0003F5B47341
:101E60007A681344FB60FB6800225A70FB7803F029
:101E70000703DAB2FB681A703A88FB681A61FB68DC
:101E8000BA78DA70FB685B78002B04D0FB681B78AB
:101E90009AB2FB68DA81BB78022B02D1FB68002280
:101EA0001A717B6893F8A832012B01D102230EE04E
:101EB0007B68012283F8A8227B681B68F9681846B2
:101EC00002F066FB7B68002283F8A822FB7A1846A2
:101ED0001037BD4680BD80B584B000AF78600B463A
:101EE000FB7097F90330002B0EDAFB7803F0070341
:101EF0005A1C13469B001344DB007A681344FB60B2
:101F0000FB6801225A700EE0FB7803F007021346CB
:101F10009B001344DB0003F5B4737A681344FB6041
:101F2000FB6800225A70FB7803F00703DAB2FB6803
:101F30001A707B6893F8A832012B01D102230EE0BE
:101F40007B68012283F8A8227B681B68F968184621
:101F500002F082FE7B68002283F8A8220023184644
:101F60001037BD4680BD80B586B000AFF8607A609E
:101F70003B600B46FB72FB7A03F0070213469B00A3
:101F80001344DB0003F5B473FA6813447B617B6987
:101F90007A685A617B693A689A617B690022DA61E2
:101FA0007B6900225A70FB7A03F00703DAB27B697F
:101FB0001A70FB7A03F00703002B06D1FB681B683D
:101FC0007969184603F034F805E0FB681B68796905
:101FD000184603F02DF8002318461837BD4680BD7B
:101FE00080B483B000AF78600B46FB70FB7803F0E1
:101FF0000702796813469B001344DB000B4403F58A
:10200000C2731B6818460C37BD4680BC704780B54C
:1020100086B000AFF8607A603B600B46FB72FB7ADB
:1020200003F007035A1C13469B001344DB00FA68B5
:1020300013447B617B697A685A617B693A689A616B
:102040007B69012283F824207B693A681A627B69E4
:102050000022DA617B6901225A70FB7A03F00703E0
:10206000DAB27B691A70FB7A03F00703002B06D102
:10207000FB681B687969184602F0DAFF05E0FB6827
:102080001B687969184602F0D3FF002318461837F9
:10209000BD4680BD80B584B000AF78600B46FB7054
:1020A000FB7803F007027B685B689A4201D9012341
:1020B0004CE097F90330002B0EDAFB7803F00703AE
:1020C0005A1C13469B001344DB007A681344FB60E0
:1020D000FB6801225A700CE0FA7813469B00134407
:1020E000DB0003F5B4737A681344FB60FB680022DD
:1020F0005A70FB6801229A70FB7803F00703DAB28A
:10210000FB681A707B6893F8A832012B01D1022377
:102110001CE07B68012283F8A8227B681B68F968B1
:10212000184604F08CFAFB7803F00703002B08D163
:102130007B681A687B6803F52C731946104604F017
:10214000B1FB7B68002283F8A822002318461037D1
:10215000BD4680BD80B584B000AF78600B46FB7093
:10216000FB7803F00F027B685B689A4201D9012378
:1021700040E097F90330002B0EDAFB7803F00703F9
:102180005A1C13469B001344DB007A681344FB601F
:10219000FB6801225A700EE0FB7803F00702134639
:1021A0009B001344DB0003F5B4737A681344FB60AF
:1021B000FB6800225A70FB6800229A70FB7803F0DB
:1021C0000703DAB2FB681A707B6893F8A832012B18
:1021D00001D102230EE07B68012283F8A8227B68EC
:1021E0001B68F968184604F07AFA7B68002283F8C5
:1021F000A822002318461037BD4680BD80B582B0A6
:1022000000AF78600B46FB707B6893F8A832012B17
:1022100001D102231BE07B68012283F8A82297F9F1
:102220000330002B09DA7B681A68FB7803F0070398
:102230001946104602F096F904E07B681B681846C0
:1022400002F09BF97B68002283F8A822002318463D
:102250000837BD4680BD80B58EB000AF7860ECE237
:102260007B681B68B3F84430FB85FB8DDBB203F061
:102270000F0387F82D3097F82D30002B40F0618147
:10228000FB8D03F01003002B52D17B681B681B8869
:102290009BB223F4E14323F070037B857B681A68CB
:1022A0007B8D6FEA43436FEA53439BB213807B6895
:1022B00028337B627B681B68B3F850309BB21A46A8
:1022C0007B6A1B78DB00134402335B007A68126878
:1022D000134403F580631B88C3F309027B6ADA6148
:1022E0007B6A5A697B6ADB691A447B6A5A610021FE
:1022F00078680AF06CFD7B6893F82430DBB2002B21
:1023000000F09B827B6A9B69002B40F096827B6881
:102310001B687A6892F82420D2B262F07F02D2B2AF
:1023200092B2A3F84C207B68002283F8242084E238
:102330007B6803F5B4737B627B681B681B887B84B6
:102340007B8C03F40063002B34D07B681B68B3F8EC
:1023500050309BB21A467B6A1B78DB00134406336D
:102360005B007A681268134403F580631B88C3F32B
:1023700009027B6ADA617B6818687B6803F52C7157
:102380007B6ADA887B6ADB699BB204F0DAFA7B68E5
:102390001B681B889AB240F68F7313403B847B689E
:1023A0001B683A8C42F0800292B21A8078680AF078
:1023B000E1FC42E2B7F92230002B80F23E827B68DA
:1023C0001B681B889AB240F68F731340FB837B68AF
:1023D0001B68FA8B42F0800292B21A807B681B68FD
:1023E000B3F850309BB21A467B6A1B78DB0013446B
:1023F00006335B007A681268134403F580631B8818
:10240000C3F309027B6ADA617B6ADB69002B19D0AE
:102410007B6A5B69002B15D07B6818687B6A5969F9
:102420007B6ADA887B6ADB699BB204F08AFA7B6A92
:102430005A697B6ADB691A447B6A5A6100217868B1
:102440000AF0AAFC7B681B681B889BB203F400633C
:10245000002B40F0F2817B681B68BB617B681B68C6
:10246000B3F850309BB21A46BB691344BB61BB69D9
:1024700003F20C437B617B6A1B69002B12D17B69E1
:102480001B889BB223F4F8439AB27B691A807B695C
:102490001B889BB26FEA43436FEA53439AB27B694E
:1024A0001A802FE07B6A1B693E2B13D87B6A1B695D
:1024B0005B083B637B6A1B6903F00103002B02D0BE
:1024C0003B6B01333B633B6B9BB29B029AB27B69D4
:1024D0001A8017E07B6A1B695B093B637B6A1B6997
:1024E00003F01F03002B02D13B6B013B3B633B6BB3
:1024F0009BB29B029BB26FEA43436FEA53439AB28B
:102500007B691A807B681B681B889BB223F480431D
:1025100023F070037B827B8A83F480537B827B8AE7
:1025200083F400537B827B681A687B8A43F07F4385
:1025300043F47F0343F4004343F080039BB21380D2
:102540007BE17B681B681A4697F82D309B0013448B
:102550001B887B84B7F92230002B80F2EA807B68ED
:102560001B681A4697F82D309B0013441B889AB2BB
:1025700040F68F7313403B827B681B681A4697F8BE
:102580002D309B0013443A8A42F0800292B21A80A6
:1025900097F82D2013469B001344DB0003F5B4731A
:1025A0007A6813447B627B6A1B7B002B22D17B6899
:1025B0001B68B3F850309BB21A467B6A1B78DB006D
:1025C000134406335B007A681268134403F5806392
:1025D0001B88C3F30903FB86FB8E002B00F087806A
:1025E0007B6818687B6A59697B6ADA88FB8E04F01D
:1025F000A8F97CE07B6ADB78022B08D17B8C1A4639
:10260000796A786800F027F90346FB866FE07B68FB
:102610001B681A467B6A1B789B0013441B889BB27D
:1026200023F4E04323F07003FB817B681B681A46A8
:102630007B6A1B789B001A44FB8943F07F4343F479
:102640007F0343F4004343F0C0039BB213807B68D5
:102650001B681A467B6A1B789B0013441B889BB23D
:1026600003F48043002B21D07B681B68B3F8503003
:102670009BB21A467B6A1B78DB00134402335B0073
:102680007A681268134403F580631B88C3F3090357
:10269000FB86FB8E002B2AD07B6818687B6A596901
:1026A0007B6A1A89FB8E04F04CF920E07B681B687A
:1026B000B3F850309BB21A467B6A1B78DB00134498
:1026C00006335B007A681268134403F580631B8845
:1026D000C3F30903FB86FB8E002B08D07B681868C8
:1026E0007B6A59697B6A5A89FB8E04F02AF97B6AF6
:1026F000DA69FB8E1A447B6ADA617B6A5A69FB8E5F
:102700001A447B6A5A617B6A9B69002B04D0FA8E5B
:102710007B6A1B699A4206D27B6A1B7819467868E5
:102720000AF03AFB05E07B681B68796A184602F0FC
:102730007FFC7B8C03F08003002B7ED097F82D303C
:102740005A1C13469B001344DB007A6813447B62D7
:102750007B681B681A4697F82D309B0013441B8832
:102760009BB223F4E14323F07003BB817B681B68B9
:102770001A4697F82D309B001A44BB896FEA4343F1
:102780006FEA53439BB213807B6ADB78032B0CD038
:102790007B6ADB78002B08D07B6ADB78022B46D182
:1027A0007B8C03F48073002B41D17B681B68B3F8EA
:1027B00050309BB21A467B6A1B78DB00134402330D
:1027C0005B007A681268134403F580631B88C3F3C7
:1027D00009037B817B6A9A697B899A4206D97B6A65
:1027E0009A697B89D21A7B6A9A6102E07B6A00222D
:1027F0009A617B6A9B69002B06D17B6A1B7819461C
:1028000078680AF0E4FA18E07B6A5A697B891A440E
:102810007B6A5A617B6ADA697B891A447B6ADA616E
:102820007B681B68796A184602F002FC05E07B8C25
:102830001A46796A786800F01BF97B681B68B3F860
:1028400044309BB21BB2002BFFF60AAD00231846A2
:102850003837BD4680BD80B588B000AFF860B9603C
:102860001346FB80FB8803F48043002B7ED0FB687B
:102870001B68B3F850309BB21A46BB681B78DB006C
:10288000134402335B00FA681268134403F5806353
:102890001B88C3F30903FB83BB689A69FB8B9A42CD
:1028A00006D3BB689A69FB8BD21ABB689A6102E0B7
:1028B000BB6800229A61BB689B69002B23D1FB682F
:1028C0001B681A46BB681B789B0013441B889BB28D
:1028D00023F4804323F07003BB83BB8B83F400534A
:1028E000BB83FB681B681A46BB681B789B001A44B5
:1028F000BB8B43F07F4343F47F0343F4004343F037
:1029000080039BB21380FB8803F04003002B1FD091
:10291000FB681B681A46BB681B789B0013441B8826
:102920009BB223F4E04323F070037B83FB681B68B6
:102930001A46BB681B789B001A447B8B43F07F438D
:1029400043F47F0343F4004343F0C0039BB213807E
:10295000FB8B002B00F08780FB681868BB68596907
:10296000BB681A89FB8B03F0ECFF7CE0FB681B68FB
:10297000B3F850309BB21A46BB681B78DB00134497
:1029800006335B00FA681268134403F580631B8802
:10299000C3F30903FB83BB689A69FB8B9A4206D396
:1029A000BB689A69FB8BD21ABB689A6102E0BB686C
:1029B00000229A61BB689B69002B23D1FB681B68CE
:1029C0001A46BB681B789B0013441B889BB223F4F8
:1029D000804323F070033B833B8B83F400533B83A2
:1029E000FB681B681A46BB681B789B001A443B8B2C
:1029F00043F07F4343F47F0343F4004343F08003F9
:102A00009BB21380FB8803F04003002B1FD1FB68AF
:102A10001B681A46BB681B789B0013441B889BB23B
:102A200023F4E04323F07003FB82FB681B681A4623
:102A3000BB681B789B001A44FB8A43F07F4343F436
:102A40007F0343F4004343F0C0039BB21380FB8B2E
:102A5000002B08D0FB681868BB685969BB685A89A5
:102A6000FB8B03F06EFFFB8B18462037BD4680BD05
:102A700080B5A4B000AFF860B9601346FB80FB8856
:102A800003F04003002B00F0DD81FB681B68B3F806
:102A900050309BB21A46BB681B78DB0013440233EC
:102AA0005B00FA681268134403F580631B88C3F364
:102AB0000903A7F88230BB689A69B7F882309A4256
:102AC00007D9BB689A69B7F88230D21ABB689A6195
:102AD00002E0BB6800229A61BB689B69002B40F052
:102AE000BB80BB685B78002B26D1FB681B68FB674B
:102AF000FB681B68B3F850309BB21A46FB6F134457
:102B0000FB67BB681B781A01FB6F134403F2044395
:102B1000BB67BB6F1B889BB223F4F8439AB2BB6FB1
:102B20001A80BB6F1B889BB26FEA43436FEA534323
:102B30009AB2BB6F1A801AE0BB685B78012B16D182
:102B4000FB681B687B67FB681B68B3F850309BB25F
:102B50001A467B6F13447B67BB681B781A017B6F37
:102B6000134403F204433B673B6F00221A80FB6867
:102B70001B68FB66BB685B78002B26D1FB681B6873
:102B8000BB66FB681B68B3F850309BB21A46BB6E3D
:102B90001344BB66BB681B781A01BB6E134403F277
:102BA0000C437B667B6E1B889BB223F4F8439AB27E
:102BB0007B6E1A807B6E1B889BB26FEA43436FEA81
:102BC00053439AB27B6E1A8017E0BB685B78012B87
:102BD00013D1FB681B68B3F850309BB21A46FB6EEA
:102BE0001344FB66BB681B781A01FB6E134403F2A7
:102BF0000C433B663B6E00221A80BB681B7819466B
:102C0000F8680AF0E4F8FB8803F48043002B00F036
:102C1000F182FB681B681A46BB681B789B00134453
:102C20001B889BB223F4E04323F07003A7F85E30C7
:102C3000FB681B681A46BB681B789B001A44B7F8F0
:102C40005E3043F07F4343F47F0343F4404343F05B
:102C500080039BB21380CDE2FB8803F48043002BFA
:102C600021D0FB681B681A46BB681B789B00134485
:102C70001B889BB223F4E04323F07003A7F85C3079
:102C8000FB681B681A46BB681B789B001A44B7F8A0
:102C90005C3043F07F4343F47F0343F4404343F00D
:102CA00080039BB21380BB6893F82430012B40F063
:102CB000A182BB685A69B7F882301A44BB685A616E
:102CC000BB68DA69B7F882301A44BB68DA61BB685E
:102CD0001A6ABB681B699A420BD3BB681B69C7F8A9
:102CE0008C30BB681A6AD7F88C30D21ABB681A626B
:102CF00017E0BB681B6A002B08D1B7F88230C7F811
:102D00008C30BB68002283F824200AE0BB680022D4
:102D100083F82420BB681B6AC7F88C30BB6800228C
:102D20001A62BB685B78002B63D1FB681B68BB65CC
:102D3000FB681B68B3F850309BB21A46BB6D134456
:102D4000BB65BB681B781A01BB6D134403F20443D7
:102D50007B65D7F88C30002B12D17B6D1B889BB222
:102D600023F4F8439AB27B6D1A807B6D1B889BB26B
:102D70006FEA43436FEA53439AB27B6D1A8055E082
:102D8000D7F88C303E2B17D8D7F88C305B08C7F8B3
:102D90008830D7F88C3003F00103002B04D0D7F82B
:102DA00088300133C7F88830D7F888309BB29B024F
:102DB0009AB27B6D1A8039E0D7F88C305B09C7F87E
:102DC0008830D7F88C3003F01F03002B04D1D7F8DC
:102DD0008830013BC7F88830D7F888309BB29B0217
:102DE0009BB26FEA43436FEA53439AB27B6D1A80FA
:102DF0001CE0BB685B78012B18D1FB681B683B6546
:102E0000FB681B68B3F850309BB21A463B6D134405
:102E10003B65BB681B781A013B6D134403F2044306
:102E2000FB64D7F88C309AB2FB6C1A80FB68186888
:102E3000BB685969BB681A89D7F88C309BB203F01C
:102E40003CFDD7E1FB681B68B3F850309BB21A46D3
:102E5000BB681B78DB00134406335B00FA6812681A
:102E6000134403F580631B88C3F30903A7F882307A
:102E7000BB689A69B7F882309A4207D3BB689A69EF
:102E8000B7F88230D21ABB689A6102E0BB680022B0
:102E90009A61BB689B69002B40F0B980BB685B7886
:102EA000002B26D1FB681B68BB64FB681B68B3F86A
:102EB00050309BB21A46BB6C1344BB64BB681B7892
:102EC0001A01BB6C134403F204437B647B6C1B88C4
:102ED0009BB223F4F8439AB27B6C1A807B6C1B88FC
:102EE0009BB26FEA43436FEA53439AB27B6C1A80FA
:102EF0001AE0BB685B78012B16D1FB681B683B644A
:102F0000FB681B68B3F850309BB21A463B6C134405
:102F10003B64BB681B781A013B6C134403F2044307
:102F2000FB63FB6B00221A80FB681B68BB63BB68FA
:102F30005B78002B26D1FB681B687B63FB681B68F2
:102F4000B3F850309BB21A467B6B13447B63BB686B
:102F50001B781A017B6B134403F20C433B633B6BFE
:102F60001B889BB223F4F8439AB23B6B1A803B6BED
:102F70001B889BB26FEA43436FEA53439AB23B6BA1
:102F80001A8017E0BB685B78012B13D1FB681B68C4
:102F9000B3F850309BB21A46BB6B1344BB63BB689B
:102FA0001B781A01BB6B134403F20C43FB62FB6AF0
:102FB00000221A80BB681B781946F86809F007FFE1
:102FC000FB8803F48043002B40F01481FB681B68EE
:102FD0001A46BB681B789B0013441B889BB223F4E2
:102FE000E04323F070037B85FB681B681A46BB68CF
:102FF0001B789B001A447B8D43F07F4343F47F038F
:1030000043F4404343F080039BB21380F2E0FB881B
:1030100003F48043002B1FD1FB681B681A46BB6872
:103020001B789B0013441B889BB223F4E04323F0DE
:1030300070033B85FB681B681A46BB681B789B00C6
:103040001A443B8D43F07F4343F47F0343F44043F2
:1030500043F080039BB21380BB6893F82430012BAC
:1030600040F0C880BB685A69B7F882301A44BB6820
:103070005A61BB68DA69B7F882301A44BB68DA6112
:10308000BB681A6ABB681B699A420BD3BB681B6991
:10309000C7F88C30BB681A6AD7F88C30D21ABB6874
:1030A0001A6217E0BB681B6A002B08D1B7F88230A0
:1030B000C7F88C30BB68002283F824200AE0BB6884
:1030C0001B6AC7F88C30BB6800221A62BB680022FA
:1030D00083F82420FB681B687B62BB685B78002B4D
:1030E00063D1FB681B683B62FB681B68B3F8503018
:1030F0009BB21A463B6A13443B62BB681B781A01B9
:103100003B6A134403F20C43FB61D7F88C30002B6D
:1031100012D1FB691B889BB223F4F8439AB2FB6976
:103120001A80FB691B889BB26FEA43436FEA5343E3
:103130009AB2FB691A8052E0D7F88C303E2B17D830
:10314000D7F88C305B08C7F88430D7F88C3003F0A0
:103150000103002B04D0D7F884300133C7F8843042
:10316000D7F884309BB29B029AB2FB691A8036E092
:10317000D7F88C305B09C7F88430D7F88C3003F06F
:103180001F03002B04D1D7F88430013BC7F88430EB
:10319000D7F884309BB29B029BB26FEA43436FEA3D
:1031A00053439AB2FB691A8019E0BB685B78012B24
:1031B00015D1FB681B68B3F850309BB21A467B6A86
:1031C00013447B62BB681B781A017B6A134403F2C9
:1031D0000C43BB61D7F88C309AB2BB691A80FB688C
:1031E0001868BB685969BB685A89D7F88C309BB29C
:1031F00003F063FBFB681B681A46BB681B789B00E7
:1032000013441B889BB223F4E04323F04003FB826A
:10321000FB8A83F01003FB82FB8A83F02003FB828E
:10322000FB681B681A46BB681B789B001A44FB8A24
:1032300043F07F4343F47F0343F4004343F08003B0
:103240009BB21380002318469037BD4680BD80B4E2
:1032500087B000AFF8607B600B467B8113463B81F3
:103260007B8903F080039BB2002B0BD07B8903F09A
:1032700007035A1C13469B001344DB00FA681344EF
:103280007B6109E07A8913469B001344DB0003F558
:10329000B473FA6813447B613B89002B07D17B69C7
:1032A00000221A737B689AB27B69DA800BE07B6933
:1032B00001221A737B689AB27B691A817B681B0CA6
:1032C0009AB27B695A81002318461C37BD4680BCE0
:1032D0007047000080B586B000AF78607B68002B37
:1032E00001D101236CE27B681B6803F00103002B12
:1032F00000F08780924B5B6803F00C03042B0CD02A
:103300008F4B5B6803F00C03082B12D18C4B5B686E
:1033100003F48033B3F5803F0BD1894B1B6803F472
:103320000033002B6CD07B685B68002B68D10123D5
:1033300046E27B685B68B3F5803F06D1804A804BEC
:103340001B6843F4803313602EE07B685B68002BBE
:103350000CD17B4A7A4B1B6823F480331360784A84
:10336000774B1B6823F4802313601DE07B685B6848
:10337000B3F5A02F0CD1724A714B1B6843F4802324
:1033800013606F4A6E4B1B6843F4803313600BE08D
:103390006B4A6B4B1B6823F480331360684A684B9D
:1033A0001B6823F4802313607B685B68002B13D0B9
:1033B000FDF722FE386108E0FDF71EFE02463B697C
:1033C000D31A642B01D90323FAE15D4B1B6803F484
:1033D0000033002BF0D014E0FDF70EFE386108E05A
:1033E000FDF70AFE02463B69D31A642B01D9032379
:1033F000E6E1534B1B6803F40033002BF0D100E0EF
:1034000000BF7B681B6803F00203002B63D04C4BAA
:103410005B6803F00C03002B0BD0494B5B6803F097
:103420000C03082B1CD1464B5B6803F48033002B44
:1034300016D1434B1B6803F00203002B05D07B68B9
:103440001B69012B01D00123BAE13D493C4B1B68AC
:1034500023F0F8027B685B69DB0013430B603AE002
:103460007B681B69002B20D0364B01221A60FDF7C8
:10347000C3FD386108E0FDF7BFFD02463B69D31A82
:10348000022B01D903239BE12D4B1B6803F00203A0
:10349000002BF0D02A492A4B1B6823F0F8027B68E6
:1034A0005B69DB0013430B6015E0264B00221A60BA
:1034B000FDF7A2FD386108E0FDF79EFD02463B697D
:1034C000D31A022B01D903237AE11D4B1B6803F0A9
:1034D0000203002BF0D17B681B6803F00803002B6C
:1034E0003AD07B689B69002B19D0174B01221A60D8
:1034F000FDF782FD386108E0FDF77EFD02463B697D
:10350000D31A022B01D903235AE10D4B5B6A03F056
:103510000203002BF0D0012000F0F6FA1CE00A4B69
:1035200000221A60FDF768FD38610FE0FDF764FDC9
:1035300002463B69D31A022B08D9032340E100BF9E
:103540000010024000004242800442429E4B5B6AEF
:1035500003F00203002BE9D17B681B6803F004032E
:10356000002B00F0A6800023FB75974BDB6903F06E
:103570008053002B0DD1944A934BDB6943F0805369
:10358000D361914BDB6903F08053BB60BB680123BF
:10359000FB758E4B1B6803F48073002B18D18B4A8C
:1035A0008A4B1B6843F480731360FDF725FD386177
:1035B00008E0FDF721FD02463B69D31A642B01D9CF
:1035C0000323FDE0814B1B6803F48073002BF0D0D4
:1035D0007B68DB68012B06D17B4A7B4B1B6A43F07F
:1035E000010313622DE07B68DB68002B0CD1764A67
:1035F000754B1B6A23F001031362734A724B1B6AFB
:1036000023F0040313621CE07B68DB68052B0CD1FC
:103610006D4A6D4B1B6A43F0040313626A4A6A4B9E
:103620001B6A43F0010313620BE0674A664B1B6A97
:1036300023F001031362644A634B1B6A23F0040303
:1036400013627B68DB68002B15D0FDF7D5FC386171
:103650000AE0FDF7D1FC02463B69D31A41F28832F9
:10366000934201D90323ABE0574B1B6A03F00203DB
:10367000002BEED014E0FDF7BFFC38610AE0FDF747
:10368000BBFC02463B69D31A41F28832934201D90E
:10369000032395E04C4B1B6A03F00203002BEED191
:1036A000FB7D012B05D1484A474BDB6923F0805352
:1036B000D3617B68DB69002B00F08180424B5B6843
:1036C00003F00C03082B61D07B68DB69022B46D129
:1036D0003F4B00221A60FDF78FFC386108E0FDF7D0
:1036E0008BFC02463B69D31A022B01D9032367E006
:1036F000354B1B6803F00073002BF0D17B681B6A0D
:10370000B3F5803F08D130492F4B5B6823F400327A
:103710007B689B6813434B602B482B4B5B6823F4FF
:1037200074127B68196A7B685B6A0B4313434360BE
:10373000274B01221A60FDF75FFC386108E0FDF7B6
:103740005BFC02463B69D31A022B01D9032337E005
:103750001D4B1B6803F00073002BF0D02FE01C4BB7
:1037600000221A60FDF748FC386108E0FDF744FCD0
:1037700002463B69D31A022B01D9032320E0124BE6
:103780001B6803F00073002BF0D118E07B68DB6945
:10379000012B01D1012313E00B4B5B68FB60FB683D
:1037A00003F480327B681B6A9A4206D1FB6803F4FB
:1037B00070127B685B6A9A4201D0012300E000230B
:1037C00018461837BD4680BD00100240007000400A
:1037D0006000424280B584B000AF786039607B6899
:1037E000002B01D10123D0E06A4B1B6803F00702D4
:1037F0003B689A4210D26749664B1B6823F0070268
:103800003B6813430B60634B1B6803F007023B6884
:103810009A4201D00123B8E07B681B6803F00203E1
:10382000002B20D07B681B6803F00403002B05D01D
:10383000594A594B5B6843F4E06353607B681B68EB
:1038400003F00803002B05D0534A534B5B6843F445
:10385000605353605049504B5B6823F0F0027B6823
:103860009B6813434B607B681B6803F00103002BCC
:1038700040D07B685B68012B07D1474B1B6803F482
:103880000033002B15D101237FE07B685B68022B9E
:1038900007D1414B1B6803F00073002B09D10123B2
:1038A00073E03D4B1B6803F00203002B01D10123A1
:1038B0006BE03949384B5B6823F003027B685B6837
:1038C00013434B60FDF798FBF8600AE0FDF794FBAB
:1038D0000246FB68D31A41F28832934201D903238E
:1038E00053E02D4B5B6803F00C027B685B689B0028
:1038F0009A42EBD1274B1B6803F007023B689A42C0
:1039000010D92449234B1B6823F007023B6813435B
:103910000B60204B1B6803F007023B689A4201D002
:10392000012332E07B681B6803F00403002B08D0FE
:103930001949194B5B6823F4E0627B68DB68134329
:103940004B607B681B6803F00803002B09D0124909
:10395000114B5B6823F460527B681B69DB001343E7
:103960004B6000F021F801460B4B5B681B0903F02C
:103970000F030A4AD35C21FA03F3094A1360094B87
:103980001B681846FCF7FCFF002318461037BD469D
:1039900080BD00BF002002400010024010D500088A
:1039A000200000202400002090B48AB000AF2A4BF1
:1039B0003C1D0FCB84E80F00284B1B883B80002365
:1039C000FB610023BB6100237B6200237B6100233A
:1039D0003B62234B5B68FB61FB6903F00C03042B28
:1039E00002D0082B03D02DE01E4B3B622DE0FB697B
:1039F0009B0C03F00F0307F12802134413F8243C37
:103A00007B61FB6903F48033002B13D0144B5B689C
:103A10005B0C03F0010307F12802134413F8283C60
:103A2000BB617B690F4A02FB03F2BB69B2FBF3F394
:103A30007B6204E07B690C4A02FB03F37B627B6AD6
:103A40003B6202E0074B3B6200BF3B6A18462837E7
:103A5000BD4690BC704700BF5CD400086CD4000821
:103A60000010024000127A0000093D0080B400AF4F
:103A7000024B1B681846BD4680BC704720000020E2
:103A800080B500AFFFF7F2FF0146054B5B681B0AEC
:103A900003F00703034AD35C21FA03F3184680BD01
:103AA0000010024020D5000880B483B000AF7860D9
:103AB00039607B680F221A60114B5B6803F00302C8
:103AC0007B685A600E4B5B6803F0F0027B689A607B
:103AD0000B4B5B6803F4E0627B68DA60084B5B6861
:103AE000DB0803F4E0627B681A61064B1B6803F095
:103AF00007023B681A6000BF0C37BD4680BC7047A8
:103B0000001002400020024080B485B000AF786011
:103B10000A4B1B680A4AA2FB03235B0A7A6802FB72
:103B200003F3FB6000BFFB685A1EFA60002BF9D15B
:103B300000BF1437BD4680BC704700BF2000002086
:103B4000D34D621080B586B000AF786000233B6132
:103B50000023FB607B681B6803F00103002B7DD012
:103B60000023FB754F4BDB6903F08053002B0DD115
:103B70004C4A4C4BDB6943F08053D361494BDB69C2
:103B800003F08053BB60BB680123FB75464B1B6889
:103B900003F48073002B18D1434A434B1B6843F452
:103BA00080731360FDF728FA386108E0FDF724FA06
:103BB00002463B69D31A642B01D903236DE03A4BCB
:103BC0001B6803F48073002BF0D0364B1B6A03F4A0
:103BD0004073FB60FB68002B2ED07B685B6803F4AE
:103BE0004072FB689A4227D02E4B1B6A23F4407325
:103BF000FB602E4B01221A602C4B00221A60294ACE
:103C0000FB681362FB6803F00103002B14D0FDF77F
:103C1000F3F938610AE0FDF7EFF902463B69D31A80
:103C200041F28832934201D9032336E01D4B1B6ACF
:103C300003F00203002BEED01A491A4B1B6A23F43F
:103C400040727B685B6813430B62FB7D012B05D1DF
:103C5000144A144BDB6923F08053D3617B681B68E3
:103C600003F00203002B08D00E490E4B5B6823F4CF
:103C700040427B689B6813434B607B681B6803F082
:103C80001003002B08D00749064B5B6823F4800221
:103C90007B68DB6813434B60002318461837BD462A
:103CA00080BD00BF0010024000700040400442424E
:103CB00080B582B000AF78607B68002B01D1012312
:103CC00041E07B6893F83D30DBB2002B06D17B6886
:103CD000002283F83C207868FCF724FF7B680222EE
:103CE00083F83D207B681A687B68043319461046C8
:103CF00000F064FA7B68012283F846207B68012289
:103D000083F83E207B68012283F83F207B680122F4
:103D100083F840207B68012283F841207B680122E0
:103D200083F842207B68012283F843207B680122CC
:103D300083F844207B68012283F845207B680122B8
:103D400083F83D20002318460837BD4680BD00009B
:103D500080B485B000AF78607B6893F83D30DBB20B
:103D6000012B01D001233AE07B68022283F83D2039
:103D70007B681B687A681268D26842F00102DA60D8
:103D80007B681B68184A93420ED07B681B68B3F1AE
:103D9000804F09D07B681B68144A934204D07B682B
:103DA0001B68134A934211D17B681B689B6803F020
:103DB0000703FB60FB68062B10D07B681B687A68E2
:103DC0001268126842F001021A6007E07B681B6803
:103DD0007A681268126842F001021A6000231846DD
:103DE0001437BD4680BC7047002C014000040040E1
:103DF0000008004080B582B000AF78607B681B6827
:103E00001B6903F00203022B22D17B681B68DB686D
:103E100003F00203022B1BD17B681B686FF00202C8
:103E20001A617B6801221A777B681B689B6903F023
:103E30000303002B03D0786800F0A4F905E078684C
:103E400000F097F9786800F0A6F97B6800221A77ED
:103E50007B681B681B6903F00403042B22D17B6879
:103E60001B68DB6803F00403042B1BD17B681B6811
:103E70006FF004021A617B6802221A777B681B6864
:103E80009B6903F44073002B03D0786800F07AF943
:103E900005E0786800F06DF9786800F07CF97B68DF
:103EA00000221A777B681B681B6903F00803082B44
:103EB00022D17B681B68DB6803F00803082B1BD149
:103EC0007B681B686FF008021A617B6804221A770E
:103ED0007B681B68DB6903F00303002B03D0786861
:103EE00000F050F905E0786800F043F9786800F0D8
:103EF00052F97B6800221A777B681B681B6903F004
:103F00001003102B22D17B681B68DB6803F01003C1
:103F1000102B1BD17B681B686FF010021A617B6845
:103F200008221A777B681B68DB6903F44073002B57
:103F300003D0786800F026F905E0786800F019F9F8
:103F4000786800F028F97B6800221A777B681B6884
:103F50001B6903F00103012B0ED17B681B68DB6832
:103F600003F00103012B07D17B681B686FF001028E
:103F70001A617868FCF7B6FC7B681B681B6903F064
:103F80008003802B0ED17B681B68DB6803F0800305
:103F9000802B07D17B681B686FF080021A617868FC
:103FA00000F06BFA7B681B681B6903F04003402B31
:103FB0000ED17B681B68DB6803F04003402B07D100
:103FC0007B681B686FF040021A61786800F0ECF8BB
:103FD0007B681B681B6903F02003202B0ED17B68D4
:103FE0001B68DB6803F02003202B07D17B681B686C
:103FF0006FF020021A61786800F036FA00BF0837C7
:10400000BD4680BD80B584B000AF786039607B6804
:1040100093F83C30012B01D10223A6E07B680122FA
:1040200083F83C207B68022283F83D207B681B6874
:104030009B68FB60FB6823F07703FB60FB6823F45D
:104040007F43FB607B681B68FA689A603B681B686B
:10405000402B67D0402B0BD8102B73D0102B02D8DD
:10406000002B6FD078E0202B6CD0302B6AD073E01F
:10407000702B0DD0702B04D8502B33D0602B41D037
:104080006AE0B3F5805F66D0B3F5005F17D063E0F8
:104090007B6818683B6899683B685A683B68DB68CE
:1040A00000F065F97B681B689B68FB60FB6843F068
:1040B0007703FB607B681B68FA689A604CE07B685A
:1040C00018683B6899683B685A683B68DB6800F091
:1040D0004EF97B681B687A681268926842F48042E5
:1040E0009A6039E07B6818683B6859683B68DB6810
:1040F0001A4600F0C5F87B681B685021184600F08E
:104100001CF929E07B6818683B6859683B68DB68E4
:104110001A4600F0E3F87B681B686021184600F03F
:104120000CF919E07B6818683B6859683B68DB68E4
:104130001A4600F0A5F87B681B684021184600F07D
:10414000FCF809E07B681A683B681B681946104652
:1041500000F0F3F800E000BF7B68012283F83D2007
:104160007B68002283F83C20002318461037BD46A8
:1041700080BD80B483B000AF786000BF0C37BD460F
:1041800080BC704780B483B000AF786000BF0C374C
:10419000BD4680BC704780B483B000AF786000BF7C
:1041A0000C37BD4680BC704780B483B000AF7860E8
:1041B00000BF0C37BD4680BC7047000080B485B09E
:1041C00000AF786039607B681B68FB607B68294AB8
:1041D00093420BD07B68B3F1804F07D07B68264AAF
:1041E000934203D07B68254A934208D1FB6823F0B1
:1041F0007003FB603B685B68FA681343FB607B6895
:104200001C4A93420BD07B68B3F1804F07D07B6888
:10421000194A934203D07B68184A934208D1FB683D
:1042200023F44073FB603B68DB68FA681343FB6070
:10423000FB6823F080023B685B691343FB607B688B
:10424000FA681A603B689A687B68DA623B681A68A9
:104250007B689A627B68074A934203D13B681A697C
:104260007B681A637B6801225A6100BF1437BD4620
:1042700080BC7047002C0140000400400008004052
:1042800080B487B000AFF860B9607A60FB681B6AE1
:104290007B61FB681B6A23F00102FB681A62FB6802
:1042A0009B693B613B6923F0F0033B617B681B0129
:1042B0003A6913433B617B6923F00A037B617A69A6
:1042C000BB6813437B61FB683A699A61FB687A6952
:1042D0001A6200BF1C37BD4680BC704780B487B0EF
:1042E00000AFF860B9607A60FB681B6A23F01002C7
:1042F000FB681A62FB689B697B61FB681B6A3B6118
:104300007B6923F470437B617B681B037A691343E9
:104310007B613B6923F0A0033B61BB681B013A69E9
:1043200013433B61FB687A699A61FB683A691A62D8
:1043300000BF1C37BD4680BC704780B485B000AF5D
:10434000786039607B689B68FB60FB6823F07003D2
:10435000FB603A68FB68134343F00703FB607B682C
:10436000FA689A6000BF1437BD4680BC704780B4BD
:1043700087B000AFF860B9607A603B60FB689B680B
:104380007B617B6923F47F437B613B681A027B6816
:104390001A43BB6813437A6913437B61FB687A69EC
:1043A0009A6000BF1C37BD4680BC704780B485B0A2
:1043B00000AF786039607B6893F83C30012B01D105
:1043C000022346E07B68012283F83C207B680222BE
:1043D00083F83D207B681B685B68FB607B681B681B
:1043E0009B68BB60FB6823F07003FB603B681B6845
:1043F000FA681343FB607B681B68FA685A607B6845
:104400001B68164A93420ED07B681B68B3F1804F3D
:1044100009D07B681B68124A934204D07B681B68F2
:10442000104A93420CD1BB6823F08003BB603B6809
:104430005B68BA681343BB607B681B68BA689A60A4
:104440007B68012283F83D207B68002283F83C20B2
:10445000002318461437BD4680BC7047002C01402D
:10446000000400400008004080B483B000AF7860D2
:1044700000BF0C37BD4680BC704780B483B000AF2E
:10448000786000BF0C37BD4680BC704784B080B4F4
:1044900083B000AF786007F1140080E80E000023BD
:1044A00018460C37BD4680BC04B0704780B485B058
:1044B00000AF78607B680022A3F844204FF43F43AC
:1044C000FB60FB689AB27B68A3F840200023184683
:1044D0001437BD4680BC704780B485B000AF7860AB
:1044E0004FF43F43FB607B68B3F840309AB2FB68FF
:1044F0009BB2DB439BB213409AB27B68A3F8402087
:10450000002318461437BD4680BC704780B483B082
:1045100000AF78600B46FB70002318460C37BD4691
:1045200080BC704784B080B483B000AF786007F17E
:10453000140080E80E007B680122A3F840207B680D
:104540000022A3F840207B680022A3F844207B6867
:104550000022A3F85020002318460C37BD4680BC2B
:1045600004B0704780B483B000AF78603960002336
:1045700018460C37BD4680BC704780B483B000AF8E
:104580007860002318460C37BD4680BC7047000099
:1045900080B49BB000AF78603960002387F8673043
:1045A0007A683B681B789B0013441B889BB223F4FA
:1045B000EC4323F07003A7F864303B68DB78032BEF
:1045C0001FD801A252F823F0D9450008F54500088C
:1045D0000B460008E7450008B7F8643043F4007361
:1045E000A7F8643012E0B7F8643043F4C063A7F86A
:1045F00064300BE0B7F8643043F48063A7F86430AC
:1046000004E0012387F8673000E000BF7A683B6868
:104610001B789B001A44B7F8643043F07F4343F49F
:104620007F0343F4004343F080039BB213807A6816
:104630003B681B789B0013441B889BB223F4E04328
:1046400023F070039AB23B681B789BB21343A7F820
:104650005E307A683B681B789B001A44B7F85E307E
:1046600043F07F4343F47F0343F4004343F080036C
:104670009BB213803B681B7B002B40F053813B684F
:104680005B78002B00F08E807B68BB657B68B3F89D
:1046900050309BB21A46BB6D1344BB653B681B7818
:1046A0001A01BB6D134403F580637B653B68DB88AF
:1046B0005B089BB25B009AB27B6D1A807A683B689C
:1046C0001B789B0013441B88A7F85230B7F8523070
:1046D00003F04003002B1DD07A683B681B789B00D9
:1046E00013441B889BB223F4E04323F07003A7F824
:1046F00050307A683B681B789B001A44B7F85030FA
:1047000043F07F4343F47F0343F4004343F0C0038B
:104710009BB213803B68DB78012B24D07A683B681E
:104720001B789B0013441B889BB223F4E04323F0C7
:104730004003A7F84E30B7F84E3083F02003A7F8B7
:104740004E307A683B681B789B001A44B7F84E30AD
:1047500043F07F4343F47F0343F4004343F080037B
:104760009BB2138071E27A683B681B789B0013440C
:104770001B889BB223F4E04323F04003A7F84C309E
:104780007A683B681B789B001A44B7F84C3043F0BA
:104790007F4343F47F0343F4004343F080039BB221
:1047A000138052E27B68BB647B68B3F850309BB2E5
:1047B0001A46BB6C1344BB643B681B781A01BB6C84
:1047C000134403F581637B643B68DB885B089BB221
:1047D0005B009AB27B6C1A807B683B647B68B3F8A1
:1047E00050309BB21A463B6C13443B643B681B78C9
:1047F0001A013B6C134403F20C43FB633B681B69D7
:10480000002B12D1FB6B1B889BB223F4F8439AB2A6
:10481000FB6B1A80FB6B1B889BB26FEA43436FEA0A
:1048200053439AB2FB6B1A802FE03B681B693E2B07
:1048300013D83B681B695B083B663B681B6903F048
:104840000103002B02D03B6E01333B663B6E9BB2F3
:104850009B029AB2FB6B1A8017E03B681B695B09ED
:104860003B663B681B6903F01F03002B02D13B6EC4
:10487000013B3B663B6E9BB29B029BB26FEA43439C
:104880006FEA53439AB2FB6B1A807A683B681B78D5
:104890009B0013441B887B877B8F03F48043002B92
:1048A0001BD07A683B681B789B0013441B889BB223
:1048B00023F4E04323F070033B877A683B681B785E
:1048C0009B001A443B8F43F07F4343F47F0343F440
:1048D000404343F080039BB213807A683B681B78A7
:1048E0009B0013441B889BB223F4804323F0700386
:1048F000FB86FB8E83F48053FB86FB8E83F4005390
:10490000FB867A683B681B789B001A44FB8E43F059
:104910007F4343F47F0343F4004343F080039BB29F
:10492000138092E17A683B681B789B0013441B88D4
:104930009BB223F4E04323F07003BB867A683B68A4
:104940001B789B001A44BB8E43F07F4343F47F03E4
:1049500043F4014343F080039BB213807B683B63C5
:104960007B68B3F850309BB21A463B6B13443B63F1
:104970003B681B781A013B6B134403F58063FB62B1
:104980003B681B895B089BB25B009AB2FB6A1A808A
:104990007B68BB627B68B3F850309BB21A46BB6A37
:1049A0001344BB623B681B781A01BB6A134403F5CE
:1049B00081637B623B685B895B089BB25B009AB258
:1049C0007B6A1A803B685B78002B40F091807A68A4
:1049D0003B681B789B0013441B887B847B8C03F40F
:1049E0008043002B1BD07A683B681B789B001344E4
:1049F0001B889BB223F4E04323F070033B847A6866
:104A00003B681B789B001A443B8C43F07F4343F484
:104A10007F0343F4404343F080039BB213807A68E2
:104A20003B681B789B0013441B88FB83FB8B03F0C4
:104A30004003002B1BD07A683B681B789B00134413
:104A40001B889BB223F4E04323F07003BB837A6896
:104A50003B681B789B001A44BB8B43F07F4343F4B5
:104A60007F0343F4004343F0C0039BB213807A6892
:104A70003B681B789B0013441B889BB223F4804344
:104A800023F070037B837B8B83F480537B837B8B4E
:104A900083F400537B837A683B681B789B001A443D
:104AA0007B8B43F07F4343F47F0343F4004343F0A5
:104AB00080039BB213807A683B681B789B00134489
:104AC0001B889BB223F4E04323F040033B837A68C6
:104AD0003B681B789B001A443B8B43F07F4343F4B5
:104AE0007F0343F4004343F080039BB21380ACE0A8
:104AF0007A683B681B789B0013441B88FB82FB8A07
:104B000003F48043002B1BD07A683B681B789B0022
:104B100013441B889BB223F4E04323F07003BB8251
:104B20007A683B681B789B001A44BB8A43F07F433A
:104B300043F47F0343F4404343F080039BB213806C
:104B40007A683B681B789B0013441B887B827B8AB6
:104B500003F04003002B1BD07A683B681B789B0056
:104B600013441B889BB223F4E04323F070033B8281
:104B70007A683B681B789B001A443B8A43F07F436A
:104B800043F47F0343F4004343F0C0039BB213801C
:104B90003B68DB78012B20D07A683B681B789B0050
:104BA00013441B889BB223F4E04323F04003FB81B2
:104BB000FB8983F02003FB817A683B681B789B00AC
:104BC0001A44FB8943F07F4343F47F0343F40043DB
:104BD00043F080039BB213801BE07A683B681B782C
:104BE0009B0013441B889BB223F4E04323F0400353
:104BF000BB817A683B681B789B001A44BB8943F0F1
:104C00007F4343F47F0343F4004343F080039BB2AC
:104C100013807A683B681B789B0013441B889BB207
:104C200023F4804323F070037B817A683B681B7810
:104C30009B001A447B8943F07F4343F47F0343F492
:104C4000004343F080039BB2138097F86730184607
:104C50006C37BD4680BC704780B48DB000AF7860C3
:104C600039603B681B7B002B40F08E803B685B7893
:104C7000002B44D07A683B681B789B0013441B8848
:104C8000FB85FB8D03F04003002B1BD07A683B684B
:104C90001B789B0013441B889BB223F4E04323F052
:104CA0007003BB857A683B681B789B001A44BB8DF8
:104CB00043F07F4343F47F0343F4004343F0C003D6
:104CC0009BB213807A683B681B789B0013441B8857
:104CD0009BB223F4E04323F040037B857A683B6872
:104CE0001B789B001A447B8D43F07F4343F47F0382
:104CF00043F4004343F080039BB2138092E17A684F
:104D00003B681B789B0013441B883B853B8D03F459
:104D10008043002B1BD07A683B681B789B001344B0
:104D20001B889BB223F4E04323F07003FB847A6872
:104D30003B681B789B001A44FB8C43F07F4343F491
:104D40007F0343F4404343F080039BB213807A68AF
:104D50003B681B789B0013441B889BB223F4804361
:104D600023F07003BB847A683B681B789B001A446D
:104D7000BB8C43F07F4343F47F0343F4004343F091
:104D800080039BB213804DE13B685B78002B40F0C1
:104D9000A5807A683B681B789B0013441B887B8442
:104DA0007B8C03F48043002B1BD07A683B681B7814
:104DB0009B0013441B889BB223F4E04323F0700351
:104DC0003B847A683B681B789B001A443B8C43F019
:104DD0007F4343F47F0343F4404343F080039BB29B
:104DE00013807A683B681B789B0013441B88FB8305
:104DF000FB8B03F04003002B1BD07A683B681B78C9
:104E00009B0013441B889BB223F4E04323F0700300
:104E1000BB837A683B681B789B001A44BB8B43F0CA
:104E20007F4343F47F0343F4004343F0C0039BB24A
:104E300013807A683B681B789B0013441B889BB2E5
:104E400023F4E04323F070037B837A683B681B788C
:104E50009B001A447B8B43F07F4343F47F0343F46E
:104E6000004343F0C0039BB213807A683B681B7811
:104E70009B0013441B889BB223F4804323F07003F0
:104E80003B837A683B681B789B001A443B8B43F05A
:104E90007F4343F47F0343F4004343F080039BB21A
:104EA00013807A683B681B789B0013441B889BB275
:104EB00023F4E04323F04003FB827A683B681B78CD
:104EC0009B001A44FB8A43F07F4343F47F0343F47F
:104ED000004343F080039BB21380A3E07A683B68F1
:104EE0001B789B0013441B88BB82BB8A03F480435E
:104EF000002B1BD07A683B681B789B0013441B88EF
:104F00009BB223F4E04323F070037B827A683B6812
:104F10001B789B001A447B8A43F07F4343F47F0352
:104F200043F4404343F080039BB213807A683B68AC
:104F30001B789B0013441B883B823B8A03F0400391
:104F4000002B1BD07A683B681B789B0013441B889E
:104F50009BB223F4E04323F07003FB817A683B6843
:104F60001B789B001A44FB8943F07F4343F47F0383
:104F700043F4004343F0C0039BB213807A683B685C
:104F80001B789B0013441B889BB223F4E04323F05F
:104F90007003BB817A683B681B789B001A44BB890D
:104FA00043F07F4343F47F0343F4404343F08003E3
:104FB0009BB213807A683B681B789B0013441B8864
:104FC0009BB223F4E04323F040037B817A683B6883
:104FD0001B789B001A447B8943F07F4343F47F0393
:104FE00043F4004343F080039BB213807A683B682C
:104FF0001B789B0013441B889BB223F4804323F04F
:1050000070033B817A683B681B789B001A443B899C
:1050100043F07F4343F47F0343F4004343F08003B2
:105020009BB21380002318463437BD4680BC7047BE
:1050300080B5CEB000AF3B1D18603B4619603B46C3
:105040001B685B78012B40F03E873B461B689A69E2
:105050003B461B681B699A4205D93B461B681B6986
:10506000C7F8343104E03B461B689B69C7F834310C
:105070003B461B681B7B002B2ED13B461B685969A6
:105080003B461B68DA88D7F834319BB2381D00687C
:1050900001F013FC3B1D1B68C7F8AC303B1D1B68BF
:1050A000B3F850309BB21A46D7F8AC301344C7F867
:1050B000AC303B461B681B781A01D7F8AC30134460
:1050C00003F20443C7F8A830D7F834319AB2D7F8BE
:1050D000A8301A8000F0C2BE3B461B68DB78022B6A
:1050E00040F06A833B461B681A6A3B461B681B6993
:1050F0009A4240F20E833B1D1A683B461B681B78A0
:105100009B0013441B889BB223F4E04323F07003FD
:10511000A7F8A6303B1D1A683B461B681B789B000E
:105120001A44B7F8A63043F07F4343F47F0343F4B7
:10513000014343F080039BB213803B461B681A6A0D
:10514000D7F83431D21A3B461B681A623B1D1A68E5
:105150003B461B681B789B0013441B889BB203F0E3
:105160004003002B00F07C813B1D1B68C7F8A0307A
:105170003B461B685B78002B6FD13B1D1B68C7F853
:105180009C303B1D1B68B3F850309BB21A46D7F8D1
:105190009C301344C7F89C303B461B681B781A01AF
:1051A000D7F89C30134403F20C43C7F89830D7F873
:1051B0003431002B16D1D7F898301B889BB223F4DA
:1051C000F8439AB2D7F898301A80D7F898301B88ED
:1051D0009BB26FEA43436FEA53439AB2D7F89830D1
:1051E0001A805BE0D7F834313E2B18D8D7F8343129
:1051F0005B08C7F83031D7F8343103F00103002BD6
:1052000004D0D7F830310133C7F83031D7F8303116
:105210009BB29B029AB2D7F898301A803EE0D7F83A
:1052200034315B09C7F83031D7F8343103F01F034C
:10523000002B04D1D7F83031013BC7F83031D7F813
:1052400030319BB29B029BB26FEA43436FEA5343F8
:105250009AB2D7F898301A8020E03B461B685B78FA
:10526000012B1BD13B1D1B68B3F850309BB21A4673
:10527000D7F8A0301344C7F8A0303B461B681B7812
:105280001A01D7F8A030134403F20C43C7F8943046
:10529000D7F834319AB2D7F894301A803B461B685D
:1052A0005B89A7F892303B461B685969D7F83431BF
:1052B0009BB2B7F89220381D006801F0FEFA3B4619
:1052C0001B685A69D7F834311A443B461B685A6147
:1052D0003B461B681A6A3B461B681B699A4209D900
:1052E0003B461B681A6AD7F83431D21A3B461B6812
:1052F0001A6208E03B461B681B6AC7F834313B461C
:105300001B6800221A623B461B685B78002B6FD13A
:105310003B1D1B68C7F88C303B1D1B68B3F8503031
:105320009BB21A46D7F88C301344C7F88C303B46F2
:105330001B681B781A01D7F88C30134403F204431E
:10534000C7F88830D7F83431002B16D1D7F8883019
:105350001B889BB223F4F8439AB2D7F888301A809E
:10536000D7F888301B889BB26FEA43436FEA5343F8
:105370009AB2D7F888301A805FE0D7F834313E2BE4
:1053800018D8D7F834315B08C7F82C31D7F8343146
:1053900003F00103002B04D0D7F82C310133C7F8F8
:1053A0002C31D7F82C319BB29B029AB2D7F88830B7
:1053B0001A8042E0D7F834315B09C7F82C31D7F8AE
:1053C000343103F01F03002B04D1D7F82C31013BFB
:1053D000C7F82C31D7F82C319BB29B029BB26FEAF5
:1053E00043436FEA53439AB2D7F888301A8024E0D7
:1053F0003B461B685B78012B1FD13B1D1B68C7F820
:1054000084303B1D1B68B3F850309BB21A46D7F866
:1054100084301344C7F884303B461B681B781A015C
:10542000D7F88430134403F20443C7F88030D7F828
:1054300034319AB2D7F880301A803B461B681B89FA
:10544000A7F892303B461B685969D7F834319BB2B4
:10545000B7F89220381D006801F02FFA00F0FEBC6A
:105460003B461B685B78002B64D13B1D1B68FB67C8
:105470003B1D1B68B3F850309BB21A46FB6F1344B8
:10548000FB673B461B681B781A01FB6F134403F252
:105490000443BB67D7F83431002B12D1BB6F1B8894
:1054A0009BB223F4F8439AB2BB6F1A80BB6F1B8880
:1054B0009BB26FEA43436FEA53439AB2BB6F1A80C1
:1054C00057E0D7F834313E2B17D8D7F834315B0882
:1054D000C7F82831D7F8343103F00103002B04D08A
:1054E000D7F828310133C7F82831D7F828319BB2D3
:1054F0009B029AB2BB6F1A803BE0D7F834315B094C
:10550000C7F82831D7F8343103F01F03002B04D13A
:10551000D7F82831013BC7F82831D7F828319BB29A
:105520009B029BB26FEA43436FEA53439AB2BB6F4D
:105530001A801EE03B461B685B78012B19D13B1D8E
:105540001B687B673B1D1B68B3F850309BB21A4643
:105550007B6F13447B673B461B681B781A017B6F8C
:10556000134403F204433B67D7F834319AB23B6FDC
:105570001A803B461B681B89A7F892303B461B6884
:105580005969D7F834319BB2B7F89220381D0068BA
:1055900001F093F93B461B685A69D7F834311A4435
:1055A0003B461B685A613B461B681A6A3B461B68B0
:1055B0001B699A4209D93B461B681A6AD7F83431ED
:1055C000D21A3B461B681A6208E03B461B681B6AFE
:1055D000C7F834313B461B6800221A623B1D1B682A
:1055E000FB663B461B685B78002B64D13B1D1B6848
:1055F000BB663B1D1B68B3F850309BB21A46BB6EAE
:105600001344BB663B461B681B781A01BB6E1344F0
:1056100003F20C437B66D7F83431002B12D17B6E3A
:105620001B889BB223F4F8439AB27B6E1A807B6E80
:105630001B889BB26FEA43436FEA53439AB27B6E77
:105640001A8054E0D7F834313E2B17D8D7F83431CC
:105650005B08C7F82431D7F8343103F00103002B7D
:1056600004D0D7F824310133C7F82431D7F82431D6
:105670009BB29B029AB27B6E1A8038E0D7F8343125
:105680005B09C7F82431D7F8343103F01F03002B2E
:1056900004D1D7F82431013BC7F82431D7F824319D
:1056A0009BB29B029BB26FEA43436FEA53439AB2A9
:1056B0007B6E1A801BE03B461B685B78012B16D182
:1056C0003B1D1B68B3F850309BB21A46FB6E134467
:1056D000FB663B461B681B781A01FB6E134403F202
:1056E0000C433B66D7F834319AB23B6E1A803B4686
:1056F0001B685B89A7F892303B461B685969D7F84D
:1057000034319BB2B7F89220381D006801F0D5F80B
:10571000A4E33B461B681B6AC7F834313B1D1A687B
:105720003B461B681B789B0013441B889BB223F4E9
:10573000E24323F07003A7F85E303B1D1A683B4636
:105740001B681B789B001A44B7F85E3043F07F4318
:1057500043F47F0343F4004343F080039BB2138080
:105760003B1D1B68BB653B1D1B68B3F850309BB2EB
:105770001A46BB6D1344BB653B461B681B781A0178
:10578000BB6D134403F204437B65D7F834319AB2FE
:105790007B6D1A803B461B681B89A7F892303B46FD
:1057A0001B685969D7F834319BB2B7F89220381D7D
:1057B000006801F082F851E33B1D1A683B461B6804
:1057C0001B789B0013441B889BB223F4E04323F017
:1057D0007003A7F852303B1D1A683B461B681B78C4
:1057E0009B001A44B7F8523043F07F4343F47F03E1
:1057F00043F4014343F080039BB213803B461B6894
:105800001A6AD7F83431D21A3B461B681A623B1D1C
:105810001A683B461B681B789B0013441B889BB28D
:1058200003F04003002B00F078813B1D1B68FB64F4
:105830003B461B685B78002B64D13B1D1B68BB6437
:105840003B1D1B68B3F850309BB21A46BB6C134427
:10585000BB643B461B681B781A01BB6C134403F204
:105860000C437B64D7F83431002B12D17B6C1B883E
:105870009BB223F4F8439AB27B6C1A807B6C1B8832
:105880009BB26FEA43436FEA53439AB27B6C1A8030
:1058900054E0D7F834313E2B17D8D7F834315B08B1
:1058A000C7F82031D7F8343103F00103002B04D0BE
:1058B000D7F820310133C7F82031D7F820319BB217
:1058C0009B029AB27B6C1A8038E0D7F834315B09BE
:1058D000C7F82031D7F8343103F01F03002B04D16F
:1058E000D7F82031013BC7F82031D7F820319BB2DF
:1058F0009B029BB26FEA43436FEA53439AB27B6CBD
:105900001A801BE03B461B685B78012B16D13B1DC0
:105910001B68B3F850309BB21A46FB6C1344FB640F
:105920003B461B681B781A01FB6C134403F20C43C3
:105930003B64D7F834319AB23B6C1A803B461B6803
:105940005B89A7F892303B461B685969D7F8343118
:105950009BB2B7F89220381D006800F0AEFF3B46BE
:105960001B685A69D7F834311A443B461B685A61A0
:105970003B461B681A6A3B461B681B699A4209D959
:105980003B461B681A6AD7F83431D21A3B461B686B
:105990001A6208E03B461B681B6AC7F834313B4675
:1059A0001B6800221A62D7F83431002B00F05682AF
:1059B0003B461B685B78002B72D13B1D1B68FB6369
:1059C0003B1D1B68B3F850309BB21A46FB6B134467
:1059D000FB633B461B681B781A01FB6B134403F205
:1059E000044207F138031A60D7F83431002B1AD17A
:1059F00007F138031B681B889BB223F4F8439AB263
:105A000007F138031B681A8007F138031B681B88ED
:105A10009BB26FEA43436FEA53439AB207F13803EC
:105A20001B681A8067E0D7F834313E2B19D8D7F8B5
:105A300034315B08C7F81C31D7F8343103F0010367
:105A4000002B04D0D7F81C310133C7F81C31D7F82C
:105A50001C319BB29B029AB207F138031B681A8073
:105A600049E0D7F834315B09C7F81C31D7F8343135
:105A700003F01F03002B04D1D7F81C31013BC7F8FA
:105A80001C31D7F81C319BB29B029BB26FEA434397
:105A90006FEA53439AB207F138031B681A802AE071
:105AA0003B461B685B78012B25D107F134033A1D77
:105AB00012681A603B1D1B68B3F850309BB2194640
:105AC00007F1340307F1340212680A441A603B46B6
:105AD0001B681B781A0107F134031B68134403F297
